{
  "_format": "hh-sol-artifact-1",
  "contractName": "Controller",
  "sourceName": "contracts/Controller.sol",
  "abi": [
    {
      "inputs": [],
      "stateMutability": "nonpayable",
      "type": "constructor"
    },
    {
      "inputs": [
        {
          "internalType": "address",
          "name": "",
          "type": "address"
        },
        {
          "internalType": "uint256",
          "name": "",
          "type": "uint256"
        }
      ],
      "name": "accountAssets",
      "outputs": [
        {
          "internalType": "contract CToken",
          "name": "",
          "type": "address"
        }
      ],
      "stateMutability": "view",
      "type": "function"
    },
    {
      "inputs": [
        {
          "internalType": "uint256",
          "name": "",
          "type": "uint256"
        }
      ],
      "name": "allMarkets",
      "outputs": [
        {
          "internalType": "contract CToken",
          "name": "",
          "type": "address"
        }
      ],
      "stateMutability": "view",
      "type": "function"
    },
    {
      "inputs": [
        {
          "internalType": "address",
          "name": "cToken",
          "type": "address"
        },
        {
          "internalType": "address",
          "name": "borrower",
          "type": "address"
        },
        {
          "internalType": "uint256",
          "name": "borrowAmount",
          "type": "uint256"
        }
      ],
      "name": "borrowAllowed",
      "outputs": [
        {
          "internalType": "bool",
          "name": "",
          "type": "bool"
        }
      ],
      "stateMutability": "view",
      "type": "function"
    },
    {
      "inputs": [
        {
          "internalType": "uint256",
          "name": "amount",
          "type": "uint256"
        }
      ],
      "name": "borrowStable",
      "outputs": [],
      "stateMutability": "nonpayable",
      "type": "function"
    },
    {
      "inputs": [
        {
          "internalType": "address",
          "name": "",
          "type": "address"
        }
      ],
      "name": "borrowStableBalance",
      "outputs": [
        {
          "internalType": "uint256",
          "name": "",
          "type": "uint256"
        }
      ],
      "stateMutability": "view",
      "type": "function"
    },
    {
      "inputs": [
        {
          "internalType": "address",
          "name": "account",
          "type": "address"
        },
        {
          "internalType": "address",
          "name": "cToken",
          "type": "address"
        },
        {
          "internalType": "uint256",
          "name": "redeemAmount",
          "type": "uint256"
        },
        {
          "internalType": "uint256",
          "name": "borrowAmount",
          "type": "uint256"
        }
      ],
      "name": "checkAccountliquidity",
      "outputs": [
        {
          "internalType": "uint256",
          "name": "liquidity",
          "type": "uint256"
        },
        {
          "internalType": "uint256",
          "name": "shortfall",
          "type": "uint256"
        }
      ],
      "stateMutability": "view",
      "type": "function"
    },
    {
      "inputs": [
        {
          "internalType": "address",
          "name": "cToken",
          "type": "address"
        }
      ],
      "name": "enterMarket",
      "outputs": [],
      "stateMutability": "nonpayable",
      "type": "function"
    },
    {
      "inputs": [
        {
          "internalType": "address",
          "name": "cToken",
          "type": "address"
        }
      ],
      "name": "exitMarket",
      "outputs": [],
      "stateMutability": "nonpayable",
      "type": "function"
    },
    {
      "inputs": [
        {
          "internalType": "address",
          "name": "cToken",
          "type": "address"
        },
        {
          "internalType": "address",
          "name": "account",
          "type": "address"
        }
      ],
      "name": "getAccountMembership",
      "outputs": [
        {
          "internalType": "bool",
          "name": "",
          "type": "bool"
        }
      ],
      "stateMutability": "view",
      "type": "function"
    },
    {
      "inputs": [],
      "name": "marketLength",
      "outputs": [
        {
          "internalType": "uint256",
          "name": "",
          "type": "uint256"
        }
      ],
      "stateMutability": "view",
      "type": "function"
    },
    {
      "inputs": [
        {
          "internalType": "address",
          "name": "",
          "type": "address"
        }
      ],
      "name": "markets",
      "outputs": [
        {
          "internalType": "bool",
          "name": "isListed",
          "type": "bool"
        },
        {
          "internalType": "uint256",
          "name": "collateralFactor",
          "type": "uint256"
        }
      ],
      "stateMutability": "view",
      "type": "function"
    },
    {
      "inputs": [
        {
          "internalType": "address",
          "name": "cToken",
          "type": "address"
        }
      ],
      "name": "mintAllowed",
      "outputs": [
        {
          "internalType": "bool",
          "name": "",
          "type": "bool"
        }
      ],
      "stateMutability": "view",
      "type": "function"
    },
    {
      "inputs": [
        {
          "internalType": "address",
          "name": "cToken",
          "type": "address"
        },
        {
          "internalType": "address",
          "name": "redeemer",
          "type": "address"
        },
        {
          "internalType": "uint256",
          "name": "redeemAmount",
          "type": "uint256"
        }
      ],
      "name": "redeemAllowed",
      "outputs": [
        {
          "internalType": "bool",
          "name": "",
          "type": "bool"
        }
      ],
      "stateMutability": "view",
      "type": "function"
    },
    {
      "inputs": [
        {
          "internalType": "address",
          "name": "cToken",
          "type": "address"
        }
      ],
      "name": "repayAllowed",
      "outputs": [
        {
          "internalType": "bool",
          "name": "",
          "type": "bool"
        }
      ],
      "stateMutability": "view",
      "type": "function"
    },
    {
      "inputs": [
        {
          "internalType": "uint256",
          "name": "amount",
          "type": "uint256"
        }
      ],
      "name": "repayStable",
      "outputs": [],
      "stateMutability": "nonpayable",
      "type": "function"
    },
    {
      "inputs": [
        {
          "internalType": "address",
          "name": "underlyingToken",
          "type": "address"
        },
        {
          "internalType": "uint256",
          "name": "price",
          "type": "uint256"
        }
      ],
      "name": "setPrice",
      "outputs": [],
      "stateMutability": "nonpayable",
      "type": "function"
    },
    {
      "inputs": [
        {
          "internalType": "address",
          "name": "_stableCoin",
          "type": "address"
        }
      ],
      "name": "setStableCoin",
      "outputs": [],
      "stateMutability": "nonpayable",
      "type": "function"
    },
    {
      "inputs": [],
      "name": "stableCoin",
      "outputs": [
        {
          "internalType": "contract TestToken",
          "name": "",
          "type": "address"
        }
      ],
      "stateMutability": "view",
      "type": "function"
    },
    {
      "inputs": [
        {
          "internalType": "address",
          "name": "cToken",
          "type": "address"
        }
      ],
      "name": "supportMarket",
      "outputs": [],
      "stateMutability": "nonpayable",
      "type": "function"
    },
    {
      "inputs": [
        {
          "internalType": "address",
          "name": "",
          "type": "address"
        }
      ],
      "name": "tokenPrices",
      "outputs": [
        {
          "internalType": "uint256",
          "name": "",
          "type": "uint256"
        }
      ],
      "stateMutability": "view",
      "type": "function"
    }
  ],
  "bytecode": "0x608060405234801561001057600080fd5b50612475806100206000396000f3fe608060405234801561001057600080fd5b506004361061012b5760003560e01c8063aa711a08116100ad578063dd9098f411610071578063dd9098f41461038c578063e8023895146103bc578063eabe7d91146103d8578063ede4edd014610408578063fba1d37d146104245761012b565b8063aa711a08146102c4578063cab4f84c146102f4578063da3d454c14610310578063dc8da75214610340578063dce154491461035c5761012b565b806352d84d1e116100f457806352d84d1e146101e55780638e8f294b1461021557806395cde8b414610246578063992642e514610276578063a4b81ef1146102945761012b565b8062e4768b1461013057806309a855921461014c578063204120bc1461017d57806323af4e17146101ad5780633fe5d425146101c9575b600080fd5b61014a60048036038101906101459190611b4d565b610442565b005b61016660048036038101906101619190611b8d565b61048a565b604051610174929190611c03565b60405180910390f35b61019760048036038101906101929190611c2c565b6109e4565b6040516101a49190611c59565b60405180910390f35b6101c760048036038101906101c29190611c2c565b6109fc565b005b6101e360048036038101906101de9190611c2c565b610a40565b005b6101ff60048036038101906101fa9190611c74565b610c6b565b60405161020c9190611d00565b60405180910390f35b61022f600480360381019061022a9190611c2c565b610caa565b60405161023d929190611d36565b60405180910390f35b610260600480360381019061025b9190611c2c565b610cdb565b60405161026d9190611d5f565b60405180910390f35b61027e610d34565b60405161028b9190611d9b565b60405180910390f35b6102ae60048036038101906102a99190611db6565b610d5a565b6040516102bb9190611d5f565b60405180910390f35b6102de60048036038101906102d99190611c2c565b610df1565b6040516102eb9190611c59565b60405180910390f35b61030e60048036038101906103099190611c2c565b610e09565b005b61032a60048036038101906103259190611df6565b611079565b6040516103379190611d5f565b60405180910390f35b61035a60048036038101906103559190611c74565b6111a4565b005b61037660048036038101906103719190611b4d565b61130e565b6040516103839190611d00565b60405180910390f35b6103a660048036038101906103a19190611c2c565b61135c565b6040516103b39190611d5f565b60405180910390f35b6103d660048036038101906103d19190611c74565b6113b5565b005b6103f260048036038101906103ed9190611df6565b6114f4565b6040516103ff9190611d5f565b60405180910390f35b610422600480360381019061041d9190611c2c565b61161f565b005b61042c611aa8565b6040516104399190611c59565b60405180910390f35b80600360008473ffffffffffffffffffffffffffffffffffffffff1673ffffffffffffffffffffffffffffffffffffffff168152602001908152602001600020819055505050565b6000806000806000600260008a73ffffffffffffffffffffffffffffffffffffffff1673ffffffffffffffffffffffffffffffffffffffff16815260200190815260200160002080548060200260200160405190810160405280929190818152602001828054801561055157602002820191906000526020600020905b8160009054906101000a900473ffffffffffffffffffffffffffffffffffffffff1673ffffffffffffffffffffffffffffffffffffffff1681526020019060010190808311610507575b5050505050905060005b815181101561095557600082828151811061057957610578611e49565b5b6020026020010151905060008173ffffffffffffffffffffffffffffffffffffffff166370a082318d6040518263ffffffff1660e01b81526004016105be9190611e87565b60206040518083038186803b1580156105d657600080fd5b505afa1580156105ea573d6000803e3d6000fd5b505050506040513d601f19601f8201168201806040525081019061060e9190611eb7565b905060008273ffffffffffffffffffffffffffffffffffffffff1663a12b7dc78e6040518263ffffffff1660e01b815260040161064b9190611e87565b60206040518083038186803b15801561066357600080fd5b505afa158015610677573d6000803e3d6000fd5b505050506040513d601f19601f8201168201806040525081019061069b9190611eb7565b905060008373ffffffffffffffffffffffffffffffffffffffff1663e6aa216c6040518163ffffffff1660e01b815260040160206040518083038186803b1580156106e557600080fd5b505afa1580156106f9573d6000803e3d6000fd5b505050506040513d601f19601f8201168201806040525081019061071d9190611eb7565b90506000600360008673ffffffffffffffffffffffffffffffffffffffff16632495a5996040518163ffffffff1660e01b815260040160206040518083038186803b15801561076b57600080fd5b505afa15801561077f573d6000803e3d6000fd5b505050506040513d601f19601f820116820180604052508101906107a39190611ef9565b73ffffffffffffffffffffffffffffffffffffffff1673ffffffffffffffffffffffffffffffffffffffff16815260200190815260200160002054905060006ec097ce7bc90715b34b9f10000000008284600160008a73ffffffffffffffffffffffffffffffffffffffff1673ffffffffffffffffffffffffffffffffffffffff168152602001908152602001600020600101546108419190611f55565b61084b9190611f55565b6108559190611fde565b9050670de0b6b3a7640000858261086c9190611f55565b6108769190611fde565b8a610881919061200f565b9950670de0b6b3a764000084836108989190611f55565b6108a29190611fde565b896108ad919061200f565b98508e73ffffffffffffffffffffffffffffffffffffffff168673ffffffffffffffffffffffffffffffffffffffff16141561093c57670de0b6b3a76400008e826108f89190611f55565b6109029190611fde565b8961090d919061200f565b9850670de0b6b3a76400008d836109249190611f55565b61092e9190611fde565b89610939919061200f565b98505b505050505050808061094d90612065565b91505061055b565b50600560008a73ffffffffffffffffffffffffffffffffffffffff1673ffffffffffffffffffffffffffffffffffffffff16815260200190815260200160002054826109a1919061200f565b9150818311156109c55781836109b791906120ae565b6000945094505050506109db565b600083836109d391906120ae565b945094505050505b94509492505050565b60036020528060005260406000206000915090505481565b80600460006101000a81548173ffffffffffffffffffffffffffffffffffffffff021916908373ffffffffffffffffffffffffffffffffffffffff16021790555050565b600160008273ffffffffffffffffffffffffffffffffffffffff1673ffffffffffffffffffffffffffffffffffffffff16815260200190815260200160002060000160009054906101000a900460ff16610acf576040517f08c379a0000000000000000000000000000000000000000000000000000000008152600401610ac69061213f565b60405180910390fd5b6000600160008373ffffffffffffffffffffffffffffffffffffffff1673ffffffffffffffffffffffffffffffffffffffff16815260200190815260200160002090508060020160003373ffffffffffffffffffffffffffffffffffffffff1673ffffffffffffffffffffffffffffffffffffffff16815260200190815260200160002060009054906101000a900460ff1615610b6c5750610c68565b60018160020160003373ffffffffffffffffffffffffffffffffffffffff1673ffffffffffffffffffffffffffffffffffffffff16815260200190815260200160002060006101000a81548160ff021916908315150217905550600260003373ffffffffffffffffffffffffffffffffffffffff1673ffffffffffffffffffffffffffffffffffffffff168152602001908152602001600020829080600181540180825580915050600190039060005260206000200160009091909190916101000a81548173ffffffffffffffffffffffffffffffffffffffff021916908373ffffffffffffffffffffffffffffffffffffffff160217905550505b50565b60008181548110610c7b57600080fd5b906000526020600020016000915054906101000a900473ffffffffffffffffffffffffffffffffffffffff1681565b60016020528060005260406000206000915090508060000160009054906101000a900460ff16908060010154905082565b6000600160008373ffffffffffffffffffffffffffffffffffffffff1673ffffffffffffffffffffffffffffffffffffffff16815260200190815260200160002060000160009054906101000a900460ff169050919050565b600460009054906101000a900473ffffffffffffffffffffffffffffffffffffffff1681565b6000600160008473ffffffffffffffffffffffffffffffffffffffff1673ffffffffffffffffffffffffffffffffffffffff16815260200190815260200160002060020160008373ffffffffffffffffffffffffffffffffffffffff1673ffffffffffffffffffffffffffffffffffffffff16815260200190815260200160002060009054906101000a900460ff16905092915050565b60056020528060005260406000206000915090505481565b600160008273ffffffffffffffffffffffffffffffffffffffff1673ffffffffffffffffffffffffffffffffffffffff16815260200190815260200160002060000160009054906101000a900460ff1615610e99576040517f08c379a0000000000000000000000000000000000000000000000000000000008152600401610e90906121ab565b60405180910390fd5b60018060008373ffffffffffffffffffffffffffffffffffffffff1673ffffffffffffffffffffffffffffffffffffffff16815260200190815260200160002060000160006101000a81548160ff021916908315150217905550670853a0d2313c0000600160008373ffffffffffffffffffffffffffffffffffffffff1673ffffffffffffffffffffffffffffffffffffffff1681526020019081526020016000206001018190555060005b600080549050811015611012578173ffffffffffffffffffffffffffffffffffffffff1660008281548110610f7d57610f7c611e49565b5b9060005260206000200160009054906101000a900473ffffffffffffffffffffffffffffffffffffffff1673ffffffffffffffffffffffffffffffffffffffff161415610fff576040517f08c379a0000000000000000000000000000000000000000000000000000000008152600401610ff690612217565b60405180910390fd5b808061100a90612065565b915050610f45565b506000819080600181540180825580915050600190039060005260206000200160009091909190916101000a81548173ffffffffffffffffffffffffffffffffffffffff021916908373ffffffffffffffffffffffffffffffffffffffff16021790555050565b6000600160008573ffffffffffffffffffffffffffffffffffffffff1673ffffffffffffffffffffffffffffffffffffffff16815260200190815260200160002060000160009054906101000a900460ff166110d8576000905061119d565b600160008573ffffffffffffffffffffffffffffffffffffffff1673ffffffffffffffffffffffffffffffffffffffff16815260200190815260200160002060020160008473ffffffffffffffffffffffffffffffffffffffff1673ffffffffffffffffffffffffffffffffffffffff16815260200190815260200160002060009054906101000a900460ff16611172576000905061119d565b6000611181848660008661048a565b915050600081111561119757600091505061119d565b60019150505b9392505050565b80600560003373ffffffffffffffffffffffffffffffffffffffff1673ffffffffffffffffffffffffffffffffffffffff168152602001908152602001600020541015611226576040517f08c379a000000000000000000000000000000000000000000000000000000000815260040161121d90612283565b60405180910390fd5b80600560003373ffffffffffffffffffffffffffffffffffffffff1673ffffffffffffffffffffffffffffffffffffffff168152602001908152602001600020600082825461127591906120ae565b92505081905550600460009054906101000a900473ffffffffffffffffffffffffffffffffffffffff1673ffffffffffffffffffffffffffffffffffffffff16639dc29fac33836040518363ffffffff1660e01b81526004016112d99291906122a3565b600060405180830381600087803b1580156112f357600080fd5b505af1158015611307573d6000803e3d6000fd5b5050505050565b6002602052816000526040600020818154811061132a57600080fd5b906000526020600020016000915091509054906101000a900473ffffffffffffffffffffffffffffffffffffffff1681565b6000600160008373ffffffffffffffffffffffffffffffffffffffff1673ffffffffffffffffffffffffffffffffffffffff16815260200190815260200160002060000160009054906101000a900460ff169050919050565b60006113c533600080600061048a565b5090508181101561140b576040517f08c379a000000000000000000000000000000000000000000000000000000000815260040161140290612318565b60405180910390fd5b81600560003373ffffffffffffffffffffffffffffffffffffffff1673ffffffffffffffffffffffffffffffffffffffff168152602001908152602001600020600082825461145a919061200f565b92505081905550600460009054906101000a900473ffffffffffffffffffffffffffffffffffffffff1673ffffffffffffffffffffffffffffffffffffffff166340c10f1933846040518363ffffffff1660e01b81526004016114be9291906122a3565b600060405180830381600087803b1580156114d857600080fd5b505af11580156114ec573d6000803e3d6000fd5b505050505050565b6000600160008573ffffffffffffffffffffffffffffffffffffffff1673ffffffffffffffffffffffffffffffffffffffff16815260200190815260200160002060000160009054906101000a900460ff166115535760009050611618565b600160008573ffffffffffffffffffffffffffffffffffffffff1673ffffffffffffffffffffffffffffffffffffffff16815260200190815260200160002060020160008473ffffffffffffffffffffffffffffffffffffffff1673ffffffffffffffffffffffffffffffffffffffff16815260200190815260200160002060009054906101000a900460ff166115ed5760009050611618565b60006115fc848685600061048a565b9150506000811115611612576000915050611618565b60019150505b9392505050565b6000600160008373ffffffffffffffffffffffffffffffffffffffff1673ffffffffffffffffffffffffffffffffffffffff168152602001908152602001600020905060008273ffffffffffffffffffffffffffffffffffffffff1663a12b7dc7336040518263ffffffff1660e01b815260040161169d9190611e87565b60206040518083038186803b1580156116b557600080fd5b505afa1580156116c9573d6000803e3d6000fd5b505050506040513d601f19601f820116820180604052508101906116ed9190611eb7565b905060008114611732576040517f08c379a000000000000000000000000000000000000000000000000000000000815260040161172990612384565b60405180910390fd5b8160020160003373ffffffffffffffffffffffffffffffffffffffff1673ffffffffffffffffffffffffffffffffffffffff16815260200190815260200160002060009054906101000a900460ff1661178c575050611aa5565b60008260020160003373ffffffffffffffffffffffffffffffffffffffff1673ffffffffffffffffffffffffffffffffffffffff16815260200190815260200160002060006101000a81548160ff0219169083151502179055506000600260003373ffffffffffffffffffffffffffffffffffffffff1673ffffffffffffffffffffffffffffffffffffffff1681526020019081526020016000208054806020026020016040519081016040528092919081815260200182805480156118a757602002820191906000526020600020905b8160009054906101000a900473ffffffffffffffffffffffffffffffffffffffff1673ffffffffffffffffffffffffffffffffffffffff168152602001906001019080831161185d575b5050505050905060008151905060005b8251811015611929578573ffffffffffffffffffffffffffffffffffffffff168382815181106118ea576118e9611e49565b5b602002602001015173ffffffffffffffffffffffffffffffffffffffff16141561191657809150611929565b808061192190612065565b9150506118b7565b508151811061196d576040517f08c379a0000000000000000000000000000000000000000000000000000000008152600401611964906123f0565b60405180910390fd5b6000600260003373ffffffffffffffffffffffffffffffffffffffff1673ffffffffffffffffffffffffffffffffffffffff168152602001908152602001600020905080600182805490506119c291906120ae565b815481106119d3576119d2611e49565b5b9060005260206000200160009054906101000a900473ffffffffffffffffffffffffffffffffffffffff16818381548110611a1157611a10611e49565b5b9060005260206000200160006101000a81548173ffffffffffffffffffffffffffffffffffffffff021916908373ffffffffffffffffffffffffffffffffffffffff16021790555080805480611a6a57611a69612410565b5b6001900381819060005260206000200160006101000a81549073ffffffffffffffffffffffffffffffffffffffff0219169055905550505050505b50565b60008080549050905090565b600080fd5b600073ffffffffffffffffffffffffffffffffffffffff82169050919050565b6000611ae482611ab9565b9050919050565b611af481611ad9565b8114611aff57600080fd5b50565b600081359050611b1181611aeb565b92915050565b6000819050919050565b611b2a81611b17565b8114611b3557600080fd5b50565b600081359050611b4781611b21565b92915050565b60008060408385031215611b6457611b63611ab4565b5b6000611b7285828601611b02565b9250506020611b8385828601611b38565b9150509250929050565b60008060008060808587031215611ba757611ba6611ab4565b5b6000611bb587828801611b02565b9450506020611bc687828801611b02565b9350506040611bd787828801611b38565b9250506060611be887828801611b38565b91505092959194509250565b611bfd81611b17565b82525050565b6000604082019050611c186000830185611bf4565b611c256020830184611bf4565b9392505050565b600060208284031215611c4257611c41611ab4565b5b6000611c5084828501611b02565b91505092915050565b6000602082019050611c6e6000830184611bf4565b92915050565b600060208284031215611c8a57611c89611ab4565b5b6000611c9884828501611b38565b91505092915050565b6000819050919050565b6000611cc6611cc1611cbc84611ab9565b611ca1565b611ab9565b9050919050565b6000611cd882611cab565b9050919050565b6000611cea82611ccd565b9050919050565b611cfa81611cdf565b82525050565b6000602082019050611d156000830184611cf1565b92915050565b60008115159050919050565b611d3081611d1b565b82525050565b6000604082019050611d4b6000830185611d27565b611d586020830184611bf4565b9392505050565b6000602082019050611d746000830184611d27565b92915050565b6000611d8582611ccd565b9050919050565b611d9581611d7a565b82525050565b6000602082019050611db06000830184611d8c565b92915050565b60008060408385031215611dcd57611dcc611ab4565b5b6000611ddb85828601611b02565b9250506020611dec85828601611b02565b9150509250929050565b600080600060608486031215611e0f57611e0e611ab4565b5b6000611e1d86828701611b02565b9350506020611e2e86828701611b02565b9250506040611e3f86828701611b38565b9150509250925092565b7f4e487b7100000000000000000000000000000000000000000000000000000000600052603260045260246000fd5b611e8181611ad9565b82525050565b6000602082019050611e9c6000830184611e78565b92915050565b600081519050611eb181611b21565b92915050565b600060208284031215611ecd57611ecc611ab4565b5b6000611edb84828501611ea2565b91505092915050565b600081519050611ef381611aeb565b92915050565b600060208284031215611f0f57611f0e611ab4565b5b6000611f1d84828501611ee4565b91505092915050565b7f4e487b7100000000000000000000000000000000000000000000000000000000600052601160045260246000fd5b6000611f6082611b17565b9150611f6b83611b17565b9250817fffffffffffffffffffffffffffffffffffffffffffffffffffffffffffffffff0483118215151615611fa457611fa3611f26565b5b828202905092915050565b7f4e487b7100000000000000000000000000000000000000000000000000000000600052601260045260246000fd5b6000611fe982611b17565b9150611ff483611b17565b92508261200457612003611faf565b5b828204905092915050565b600061201a82611b17565b915061202583611b17565b9250827fffffffffffffffffffffffffffffffffffffffffffffffffffffffffffffffff0382111561205a57612059611f26565b5b828201905092915050565b600061207082611b17565b91507fffffffffffffffffffffffffffffffffffffffffffffffffffffffffffffffff8214156120a3576120a2611f26565b5b600182019050919050565b60006120b982611b17565b91506120c483611b17565b9250828210156120d7576120d6611f26565b5b828203905092915050565b600082825260208201905092915050565b7f6e6f74206c697374656400000000000000000000000000000000000000000000600082015250565b6000612129600a836120e2565b9150612134826120f3565b602082019050919050565b600060208201905081810360008301526121588161211c565b9050919050565b7f616c7265616479206c6973746564210000000000000000000000000000000000600082015250565b6000612195600f836120e2565b91506121a08261215f565b602082019050919050565b600060208201905081810360008301526121c481612188565b9050919050565b7f6d61726b657420616c7265616479206164646564210000000000000000000000600082015250565b60006122016015836120e2565b915061220c826121cb565b602082019050919050565b60006020820190508181036000830152612230816121f4565b9050919050565b7f696e76616c696420616d6f756e74000000000000000000000000000000000000600082015250565b600061226d600e836120e2565b915061227882612237565b602082019050919050565b6000602082019050818103600083015261229c81612260565b9050919050565b60006040820190506122b86000830185611e78565b6122c56020830184611bf4565b9392505050565b7f65786365656420626f72726f7761626c6520616d6f756e740000000000000000600082015250565b60006123026018836120e2565b915061230d826122cc565b602082019050919050565b60006020820190508181036000830152612331816122f5565b9050919050565b7f6e6f6e2d7a65726f20626f72726f7720616d6f756e7400000000000000000000600082015250565b600061236e6016836120e2565b915061237982612338565b602082019050919050565b6000602082019050818103600083015261239d81612361565b9050919050565b7f63616e6e6f742066696e64206d61726b65740000000000000000000000000000600082015250565b60006123da6012836120e2565b91506123e5826123a4565b602082019050919050565b60006020820190508181036000830152612409816123cd565b9050919050565b7f4e487b7100000000000000000000000000000000000000000000000000000000600052603160045260246000fdfea2646970667358221220b74e4404649e0135434691d2a5f2b4d3dda43c35aca8fa29c988407c1540db7564736f6c63430008090033",
  "linkReferences": {},
  "deployedLinkReferences": {}
}